:020000040800F2
:10000000B8C00120D9030008096500084B58000852
:10001000DD6400080F250008F985000800000000D5
:1000200000000000000000000000000019030008AC
:10003000452C000800000000750300080577000843
:10004000F3030008F3030008F3030008F3030008B8
:10005000F3030008F3030008F3030008F3030008A8
:10006000F3030008F3030008F3030008F303000898
:10007000F3030008F3030008F3030008F303000888
:10008000F3030008F3030008F30300082525000824
:1000900015250008F3030008F3030008F303000824
:1000A000F3030008F3030008F3030008F303000858
:1000B000F30300089D770008F3030008F30300082A
:1000C000F3030008F3030008F3030008F303000838
:1000D000F3030008557F0008658000086982000866
:1000E000F3030008F3030008F3030008F303000818
:1000F000F3030008F3030008F3030008F303000808
:10010000F3030008F3030008F3030008F3030008F7
:10011000F3030008F3030008F3030008C1770008A5
:10012000F3030008F3030008D52B0008F3030008CD
:10013000F3030008F3030008F30300084525000853
:1001400035250008F3030008F3030008F303000853
:10015000F3030008F3030008F3030008E584000834
:10016000F3030008F3030008F3030008F303000897
:10017000F3030008F3030008F30300080000000085
:10018000F3030008F3030008F3030008F303000877
:10019000F3030008F3030008F3030008F303000867
:1001A0000000000000000000F303000800F002F867
:1001B00000F0A2F80AA090E8000C82448344AAF15F
:1001C0000107DA4501D100F097F8AFF2090EBAE85D
:1001D0000F0013F0010F18BFFB1A43F0010318477B
:1001E000D8BD0000F8BD00000A4410F8014B14F01F
:1001F0000F0508BF10F8015B240908BF10F8014B78
:100200006D1E05D010F8013B6D1E01F8013BF9D1C0
:10021000641E03D0641E01F8015BFBD19142E4D35C
:10022000704700000023002400250026103A28BF54
:1002300078C1FBD8520728BF30C148BF0B60704758
:100240006E2900F05383702900F0AB8466290BF00F
:100250004A8065290BF0478067290BF044806129AB
:100260000BF0438003681B0A28BF41F08001692915
:1002700000F01081642900F00D81752900F00A81D9
:100280006F2900F03884782900F07784E92900F09C
:10029000D383E42900F0D083F52900F0CD83EF2942
:1002A00000F03584F82900F076840368DB0928BF64
:1002B00041F08001632900F05483732900F05983D1
:1002C000E32901F08780F32901F08C80002070473A
:1002D0001FB50AF0FEFF01F0D7F80400002000214E
:1002E0000AF014FD401C6060002000210AF0F8FCB8
:1002F000E0601FBD10B510BD01F098F81146FFF782
:10030000E7FF08F0ABFA01F075F903B4FFF7F2FF6D
:1003100003BC08F050FA00002C4B19680868B0E8DC
:10032000F04F80F30988BFF36F8F4FF0000080F328
:10033000118870470000000008480068006880F3DA
:1003400008884FF0000080F3148862B661B6BFF3EE
:100350004F8FBFF36F8F00DF00BF00BF08ED00E0DD
:10036000DFF80C00016841F470010160704700BFC4
:1003700088ED00E0EFF30980BFF36F8F134B1A682D
:100380001EF0100F08BF20ED108A20E9F04F10601A
:1003900009B44FF0400080F31188BFF34F8FBFF3D3
:1003A0006F8F09F033FE4FF0000080F3118809BC15
:1003B00019680868B0E8F04F1EF0100F08BFB0ECE5
:1003C000108A80F30988BFF36F8F7047E800002020
:1003D000EFF305807047000009488047094800474F
:1003E000FEE7FEE7FEE7FEE7FEE7FEE7FEE7FEE7E5
:1003F000FEE7FEE704480549054A064B7047000042
:1004000039770008AD010008B8900120B8C001207C
:10041000B8A00120B8A00120704700001CB50C4610
:10042000064B7B4469460090204600F078FA04466B
:100430000020694600F086FA20461CBD1F0500001A
:1004400070B50C460546012A05D02878800600D5EF
:10045000EA69002302E0012305E05B1C934202D21B
:10046000E05C0028F9D1A869E618C01AA861286ADA
:1004700018442862284600F0A7F904E0D5E90121D4
:1004800014F8010B9047B442F8D3284600F0B2F9B3
:1004900070BD00002DE9F041064600241068752962
:1004A000314616A510D000F0B6F9002802DA404215
:1004B00013A507E031688A0701D512A502E04907B4
:1004C00004D511A5012401E000F0AEF900210A22B3
:1004D00006F1240709E0B0FBF2FCB0FBF2F302FBEB
:1004E0001C00303078541846491C0028F3D12346AC
:1004F0002A463046BDE8F04100F09FB900000000F8
:100500002D0000002B000000200000002DE9F05F0E
:10051000894604464FF0000ADFF874B1FB44C0F886
:1005200020A02046E1688847002874D0252806D0FE
:10053000D4E901219047206A401C2062F1E700269F
:100540005F462046E16888472028054607DB312DB5
:1005500005D2781910F8200C08B10643F1E7B0076E
:1005600001D526F00406C4F81CA00027C4F818A082
:100570002A2D09D0284608F017F938B304EB87086C
:10058000303DC8F8185019E059F8041B204604EB18
:1005900087029161E1688847012F054618D1E0691B
:1005A000002820DA26F020061DE0D8F8180000EB1D
:1005B000800005EB40003038C8F818002046E1689C
:1005C0008847054608F0F0F80028EED1012F0AD040
:1005D0002E2D08D12046E16888477F1C0546022F52
:1005E00046F02006C4DBA069002803DA404246F04A
:1005F0000106A061F00701D026F010066C2D0BD08B
:10060000682D09D04C2D39D06A2D35D0742D35D0B8
:100610007A2D33D016E038E0E1682F46204688472F
:10062000B842054609D16C2F26D04FF48060E168AE
:10063000064320468847054604E06C2F1AD04FF445
:10064000807006430DB3A5F14100192802D820356A
:1006500046F400664A462946204626604E46FFF785
:10066000EFFD80B101280BD0F61D26F0070000F148
:10067000080956E74020E4E78020D8E70020D6E7C5
:1006800006F104094DE7284652E7206ABDE8F09FCD
:100690009AB90000032A40F2308010F0030C00F0F9
:1006A000158011F8013BBCF1020F624498BF11F8AC
:1006B00001CB00F8013B38BF11F8013BA2F1040265
:1006C00098BF00F801CB38BF00F8013B11F00303DD
:1006D00000F07282083AC0F0088051F8043B083AF2
:1006E00051F804CBA0E80810F5E7121D5CBF51F8E3
:1006F000043B40F8043BAFF30080D20724BF11F85D
:10070000013B11F801CB48BF11F8012B24BF00F8C1
:10071000013B00F801CB48BF00F8012B704702F005
:10072000FF0343EA032242EA024200F002B84FF01C
:1007300000020429C0F0128010F0030C00F01B80AE
:10074000CCF1040CBCF1020F18BF00F8012BA8BFBC
:1007500020F8022BA1EB0C0100F00DB85FEAC17C80
:1007600024BF00F8012B00F8012B48BF00F8012B33
:1007700070474FF0000200B5134694469646203964
:1007800022BFA0E80C50A0E80C50B1F12001BFF44A
:10079000F7AF090728BFA0E80C5048BF0CC05DF8B0
:1007A00004EB890028BF40F8042B08BF704748BFFE
:1007B00020F8022B11F0804F18BF00F8012B704772
:1007C000704770477047704770B504468569006888
:1007D000C10601D5302600E02026C00707D070BD35
:1007E000D4E9012130469047206A401C20626D1EEA
:1007F000F6D570BD70B5044685690078C00707D18D
:1008000070BDD4E9012120209047206A401C20625D
:100810006D1EF6D570BD09684A0501D540B2704716
:10082000C905FCD500B2704709684A0501D5C0B2B8
:100830007047C905FCD580B270472DE9F0470D46D9
:1008400099469246044600F124080168880604D5BA
:10085000E06921F01001216000E00120A84201DDE3
:10086000471B00E00027A1697A1902EB0900081A6A
:10087000A0612078C00602D42046FFF7A5FF00261D
:1008800008E0D4E901211AF806009047206A401CCC
:10089000761C20624E45F4DB2078C0060AD520463F
:1008A000FFF792FF06E0D4E9012130209047206A4B
:1008B000401C2062381EA7F10107F4DC07E0D4E9F0
:1008C000012118F805009047206A401C2062281E6C
:1008D000A5F10105F3DC2046FFF78CFF2078000628
:1008E00002D50220BDE8F0870120FBE7116802680D
:1008F000006A530501D508700AE0D30501D50880C8
:1009000006E0130603D5C217C1E9000200E0086043
:100910000120704701694A1C02610878704700B5E0
:100920008FB0CDE901310021059105497944CDE928
:10093000031011466846FFF7E9FD0FB000BD000047
:10094000E5FFFFFF0A6802F8010B0A60704710B567
:10095000436913B1AFF3008001E0FFF771FD01209F
:1009600010BD127800F124010A7000224A700122A1
:10097000EDE711684FF0FF32E9E700002DE9FF5F76
:1009800015468A460446DFF8AC80F8440027D8E9CB
:1009900000103E46CDE9001010E03AF816106A4605
:1009A00002A800F023FD411C07D02178890603D559
:1009B000E269391891420DD80744761C20788006E8
:1009C00002D5E069B84205DDAE42E6DB3AF8160032
:1009D0000028E2D1A069C01BA0612046FFF7F4FE09
:1009E000D8E90010CDE90010002017E03AF81810FF
:1009F0006A4602A800F0FAFCB0F1FF3F81460BD036
:100A000000250DF1080B05E0D4E901211BF80500D4
:100A100090476D1C4D45F7D308F10100B042804668
:100A2000E4DB206A384420622046FFF7E3FEBDE89D
:100A3000FF9F00003EB500002DE9F0418046D21D29
:100A400022F007020025D2E90002F52915A614D0EC
:100A5000011E72F1000106DA0023D0EB030063EB04
:100A6000020211A608E0D8F800108B0701D50FA6E6
:100A700002E0490701D50EA601251146002408F120
:100A8000240704E000F0CAF830323A55641C50EAFA
:100A90000102F7D12B46324621464046BDE8F041DF
:100AA000FFF7CBBE000000002D0000002B0000006F
:100AB0002000000030B4002100F1240408E002F01E
:100AC0000705D208303542EA4372DB086554491CF9
:100AD00052EA0305F3D10468002310A2250707D5C5
:100AE000A40600D421B1C46901230DA2641EC4610F
:100AF00030BCFFF7A2BE10B5044621461068FFF7D0
:100B000093FE02462046BDE810400023D2E7D21DE6
:100B100022F00701D1E90023CCE70000000000002B
:100B200030000000F0B40D460188090502D5214CC3
:100B30007C4402E01F4C7C440E34002100F124066A
:100B400008E002F00F071209E75D42EA03721B0991
:100B50007754491C52EA0307F3D1027800231207A5
:100B600004D5702D06D009B1022311342246F0BC01
:100B7000FFF763BE01231034F8E770B504460D4655
:100B800021461068FFF750FE024629462046BDE880
:100B900070400023C6E7D21D22F00703D3E90023EB
:100BA000C0E70368126843F0200303600823C361B1
:100BB0000023B7E7A0B3000010B5203AC0F00B80C7
:100BC000B1E81850203AA0E81850B1E81850A0E851
:100BD0001850BFF4F5AF5FEA027C24BFB1E81850AB
:100BE000A0E8185044BF18C918C0BDE810405FEA1B
:100BF000827C24BF51F8043B40F8043B08BF704797
:100C0000D20728BF31F8023B48BF11F8012B28BF9B
:100C100020F8023B48BF00F8012B704730B5B0F117
:100C20000A024FEA900E71F100034EEA817EB0EBAA
:100C30000E0061EB91014FEA101E4EEA017E10EBAF
:100C40000E0041EB11114FEA102E4EEA016E10EB2F
:100C50000E0041EB11214FEA104E4EEA014E10EB0F
:100C60000E0041EB1141401841F100014FEAD00064
:100C700040EA41704FEAD10110EB80054FEA810450
:100C800044EA907444EB01046D1944EB0404521BD4
:100C9000A3414FF0000348BF0A3200D530BD401CCD
:100CA00041F1000130BD70472DE9FF4F0C461E4653
:100CB0004FF0FF378BB0D2E90001DDF860800A9079
:100CC0008A46C1F30A5505B93D46002108464FF052
:100CD0000000BAF1000F00F4400005DA00EB8000DC
:100CE0004FF4400101EA50004FEA9059B9F1010F69
:100CF00000DDB9460A9850EA4A000ED044F610507A
:100D0000A5F2FF3545432F14B8F1000F1ED07542F0
:100D1000291E1EDDC9F100021CE0B8F1010F4FF0E1
:100D2000000001D0302103E0F24305E02154401CD3
:100D3000B042FBDB30460022002121540B99C1F860
:100D40000880C1E900200FB0BDE8F08FBD1B6D1C0D
:100D5000DEE74A4600DA694206A800F0D9FB06AB96
:100D600093E8070003AB83E8070050460A9900F0B8
:100D70008FFC8DE80700A0F500501F380090039805
:100D8000002D0ADD42F21F014A460844002303A950
:100D90000390684600F0F8FE09E0A0F500504A46CE
:100DA0001F38002303A90390684600F002FF8DE876
:100DB00007000004000C03D04FF0FF30410800E0B2
:100DC0001046B8F1000F03D00022009215461EE035
:100DD000751E05D4FFF722FF303262556D1EF9D51E
:100DE000B3460122084302D000227F1C04E0207891
:100DF000302801D100227F1E002A099784D01DE0EF
:100E0000112D07DAFFF70AFF303262556D1C50EAE8
:100E10000102F5D1084302D00098C8B10EE00021CC
:100E2000681E05E0235C625C63542254401E491C2A
:100E30008142F7DBAB46A81B401E0990002004F856
:100E40000B000B98099AC0F80880C0E9002B7AE7DC
:100E500011264FF0000857E72DE9F04F8846044669
:100E6000D21D22F0070191B0D1E90001CDE90A01BC
:100E700007F078FC02460B98C00F01D02D2007E048
:100E80002068810701D52B2002E0202101EAC00063
:100E9000032A099001D0072A05DB03464146204674
:100EA00000F0F6FA0BE12078800601D5E06900E059
:100EB0000620B8F1650F814606D0B8F1660F18D04C
:100EC000B8F1670F70D131E00020B9F1110F009037
:100ED00001DB112301E009F101030AAA01A90CA811
:100EE000FFF7E2FEDDE90C70002609F101058346FB
:100EF00047E001204B4600904FF000470AAA01A9A5
:100F00000CA8FFF7D1FEDDE90DB00C995D46002677
:100F100010B909F101000D18B9EB050003D4C0F1B7
:100F2000FF3609F10105A5EB09002BE0B9F1010F2E
:100F300001DA4FF001090020B9F1110F0090484685
:100F400001DD112300E003460AAA01A90CA8FFF75E
:100F5000ABFEDDE90C704D46002683462078000785
:100F60000AD4AB4500DA5D4601A8012D04DD411924
:100F700011F8011C302907D04F4502DA17F1040F90
:100F800004DA012082460FE06D1EEEE7002F02DC3E
:100F9000ED1B3E4403E0781CA84200DD7D1CB81B1D
:100FA00000F1010A4FF000472078000703D4AA455A
:100FB00001DB4FF0FF3A0021B7F1004F0DF143087C
:100FC0008DF8431024D002202B23002F01DA7F421A
:100FD0002D230A21021EA0F1010000DC5FB197FB66
:100FE000F1FC97FBF1F201FB1C7C17460CF1300C75
:100FF00008F801CDEEE7A8F101000370218809058A
:1010000001D5452100E06521A0F1010800F8011C8F
:1010100009980FA9A1EB0807FF1D00B10120411994
:1010200001EBEA70A1693844081A401EA0612078DB
:10103000C00602D42046FFF7C7FB099828B1D4E9BF
:1010400001219047206A401C20622078C00622D5EA
:101050002046FFF7B9FB1EE0002E04DBB34502DD9E
:1010600001A8805D00E03020D4E901219047206A8A
:10107000401C2062761CAAF101005FEA000A0AD136
:1010800000F002FAC0680168405CD4E90121904791
:10109000206A401C2062281EA5F10105DCDC07E067
:1010A000D4E9012118F8010B9047206A401C206206
:1010B000381EA7F10107F3DC2046FFF79BFB032056
:1010C00011B041E62DE9F04F04460D46D21D22F045
:1010D000070089B0D0E900974846394607F042FB3F
:1010E0000246F80F01D02D2307E02068810701D5C3
:1010F0002B2302E0202101EAC0038DF820300BB140
:10110000012000E00020032A824601D0072A04DBE8
:101110002946204600F0BCF93FE12078800601D442
:101120000D2500E0E569C7F30A560D2D49DA0021C7
:101130004FEA175B08464FF00000002F00F4400014
:1011400007DA00EB80004FF4400100EBD07001EAB9
:1011500060008115012901DD4FF0FF3100224FEAC7
:10116000850CBCF1180F06D31346ACF118004FF0F4
:101170008052C24003E04FF4801323FA0CF30CF1C9
:101180000C0CBCF1200F04D3ACF1200C09FA0CF0CC
:1011900001E007FA0CF000294FF0004801DD18B912
:1011A0000FE00ED140450CD319EB02095F4121B984
:1011B000404502D19F4329EA0209BBEB175F00D0EB
:1011C000761C2088000502D57B48784402E07A48E6
:1011D0007844193808AA302302F80A30037C0AF14F
:1011E0000101002E0AF1020A53546A4602DC4FF054
:1011F000300101E04FF031014FF001088DF800108F
:1012000002D0A6F2FF3603E059EA470100D06B4E48
:10121000002D02DC2178090704D54FF002082E21A9
:101220008DF80110C44600210BE0C7F303433F01D2
:10123000C35C491C6D1E02F80830052908F101083D
:1012400001DA002DF1DC00210CE000EB1973491CE0
:101250001B786D1E082902F808304FEA091908F1B9
:10126000010801DA002DF0DC21688B0602D516E0BA
:10127000A8F10108E04505DD02EB080313F8013C85
:10128000302BF5D0B8F1000F09DD02EB080313F89D
:10129000013C2E2B03D1090701D4A8F10108002D30
:1012A00005DD3E2102F808106D1E08F10108407CA2
:1012B000002E02F8080008F1010804DA2D20764219
:1012C00002F8080002E02B2002F808000A214FF47F
:1012D0007A70864208F101080BDB96FBF0F330339D
:1012E00002F8083096FBF0F308F1010800FB1366E2
:1012F00001E0642E0CDB642096FBF0F3303302F83F
:10130000083096FBF0F308F1010800FB136601E0DA
:101310000A2E06DB96FBF1F0303002F8080008F1E7
:10132000010896FBF1F001FB1060303002F8080074
:10133000A16908F1010808EB050202EB0A00081A8E
:10134000A0612078C00602D42046FFF73DFA216A4A
:1013500008AE01EB0A00206204E0D4E9012116F88E
:10136000010B9047BAF1010AF7D22078C00602D5E6
:101370002046FFF729FA6E4609E016F8010B3E28D1
:101380000FD0D4E901219047206A401C2062B8F1B7
:101390000108F2D22046FFF72DFA09B00320BDE87C
:1013A000F08F206A2844206203E0D4E90121302034
:1013B00090476D1EEBD3F8E741AD000002FCFFFF44
:1013C00010B5436913B1AFF3008001E0FFF7D6FA1F
:1013D000012010BD128800F1240182840022C28401
:1013E0000122EDE711684FF0FF32E9E770B51646CC
:1013F0000C46054600F040F8036893F80101012807
:1014000006D0FF2C0FD8185D68B101202C7070BD7C
:10141000D3F807013246214603F207130344284656
:10142000BDE8704018474FF0FF3070BD754600F0C2
:10143000EBF8AE4605006946534620F007008546A6
:1014400018B020B5FEF7D6FFBDE820404FF00006EB
:101450004FF000074FF000084FF0000B21F007019C
:10146000AC46ACE8C009ACE8C009ACE8C009ACE8DF
:10147000C0098D467047000010B500F005F8001D4A
:1014800010BD00BF89980000004870477890012087
:101490002DE9F0411F46044603260168072A01F49E
:1014A000006004DB08B116A505E016A503E008B14D
:1014B00015A500E015A521F010002060A069C01E50
:1014C000A0610FB1401EA0612046FFF77DF94FB12A
:1014D000D4E9012138469047206A401C2062C01C94
:1014E000206206E0206AFAE7D4E9012115F8010B31
:1014F0009047761EF8D22046FFF77CF9BDE8F081D0
:101500004E414E006E616E00494E4600696E6600A7
:101510002DE9F047814616468AB0354878440DC813
:101520008DE80D0032487844801C03AC0DC884E877
:101530000D0041F69B300844372190FBF1F290FBFF
:10154000F1F5A5F1800501FB12041B3C02D56442B4
:10155000012000E00020DFF898A080460027FA4430
:10156000AAF1BE0A0EE0E0070AD03246684607EB51
:10157000470101230AEB810100F01BFB8DE8070006
:1015800064107F1C002CEED1194F7F44AE3F19E050
:10159000E80715D007EB04100DF1180A90E80E00CB
:1015A0008AE80E00C068F04201D1981908903246CE
:1015B000012306A903A800F0FCFA03AB83E80700A7
:1015C0006D10641C002DE3D14FF0010332466946D3
:1015D000B8F1000F03A802D000F0D6FA01E000F045
:1015E000E8FAC9E90001C9F808200AB0BDE8F087A7
:1015F00080AA000010B50446AFF300802046BDE885
:101600001040FEF782BE000000487047589001204D
:101610004FF0013C50F8042B51F8043B9A4221D181
:10162000A2EB0C03934313EACC1317D150F8042B0D
:1016300051F8043B9A4215D1A2EB0C03934313EAF1
:10164000CC130BD150F8042B51F8043B9A4209D12A
:10165000A2EB0C03934313EACC13DBD04FF0000052
:10166000704700BFD01A01BAB1FA81F101F0180138
:1016700022FA01F0CB40C1F12001DBB2C0B2C01AA6
:101680002CFA01F3D11A914311EAC311E6D1704744
:101690005FEA400C08BF91F0000F4FEA8C234FEA3D
:1016A000C12243EA51514FEA1C5018BF00F5F040E7
:1016B0004FEA300018BF41F000415FEA6C5C00F077
:1016C0002980BCF1FF3F08BF40F080407047130CF9
:1016D00006BF12044FF0100C4FF0000C130E04BFA5
:1016E00012020CF1080C130F04BF12010CF1040CD0
:1016F000930F04BF92000CF1020CD30F04BF5200F1
:101700000CF1010C11464FF00002A0F11F00A0EBFC
:101710000C00704711F0004F08BF704731F00041D6
:101720003FF4D5AF0B0C06BF09044FF0100C4FF07F
:10173000000C0B0E04BF09020CF1080C0B0F04BFC8
:1017400009010CF1040C8B0F04BF89000CF1020C91
:10175000CB0F04BF49000CF1010CCCF12003A0EB2E
:101760000C0022FA03F302FA0CF241EA030100F141
:101770000100704720F07F4C80EA030023F07F4790
:10178000ACEB070303F57C5300F0004003F1FF03CB
:101790002DE980494FEA154B09B44FEA144325EA75
:1017A0000B4E24EA03480FF2042606EB13274908E0
:1017B0003E785FEA320203FB0667C7F5000707FBC6
:1017C00006F64FEA54374FEAD64606F1020607FB03
:1017D000066CCCF1005C4FEA1C472CEA074C07FB77
:1017E00006F40CFB06F504EB15464FEA961634BFDB
:1017F00000204FF000404FEAD13706FB07FC4FEACC
:101800001C4C0CFB0BF7D21B03FB0CF761EB070125
:101810000CFB0EF7B0EB074072EB17420CFB08F71E
:1018200034BFA2EB0742B2EB074261EB17414FEA2C
:101830000C444FEA910706FB07FC4FEA1C4C0CFBDB
:101840000BF7B0EBC74072EB573203FB0CF734BF1A
:10185000A2EBC742B2EBC74261EB57310CFB0EF76C
:10186000B0EBC70072EB57720CFB08F734BFA2EB6A
:10187000C702B2EBC70261EB5771039F4FEA816168
:1018800041EA921104EBCC044FEAD1374FEA82626D
:1018900006FB07FC42EA90124FEA80604FEA1C4CBC
:1018A0000CFB0BF7D21B03FB0CF761EB07010CFBE6
:1018B0000EF7B0EB074072EB17420CFB08F734BF92
:1018C000A2EB0742B2EB074261EB17414FEA8C559E
:1018D0004FEA910704EB9C2406FB07FC4FEA1C4CE3
:1018E0000CFB0BF7B0EBC74072EB573203FB0CF766
:1018F00034BFA2EBC742B2EBC74261EB57310CFBDE
:101900000EF7B0EBC70072EB57720CFB08F734BF51
:10191000A2EBC702B2EBC70261EB577115EB4C2586
:101920004FEA816141EA92114FEA82624FEAD13770
:1019300042EA901206FB07FC44F100044FEA806083
:101940004FEA1C4C0CFB0BF7D21B03FB0CF761EBB3
:1019500007010CFB0EF7B0EB074072EB17420CFBD4
:1019600008F734BFA2EB0742B2EB074261EB174125
:1019700015EB1C154FEA813141EA92414FEA823260
:1019800042EA90424FEA80304FEA0C7644F100047C
:1019900048EA03434EEA0B484FF0000EB2EB080C46
:1019A00071EB030724BF624639464EEB0E0E4FF033
:1019B000000B0018524149414BEB0B0BB2EB080CEA
:1019C00071EB03077BF1000B24BF624639464EEBF7
:1019D0000E0E4FF0000B0018524149414BEB0B0B20
:1019E000B2EB080C71EB03077BF1000B24BF6246DE
:1019F00039464EEB0E0E51EA020718BF46F00106BB
:101A000016EB0E7655F1000254F1000103D5BDE846
:101A10008901BDE80088BDE88901BDE80048B61924
:101A2000524141EB0101A3F10103704780807F7EA9
:101A30007D7C7B7A79787776767574737271717044
:101A40006F6E6E6D6C6C6B6A6A69686867666665F6
:101A50006464636362616160605F5F5E5E5D5D5C84
:101A60005C5B5B5A5A5959585857575656555555F5
:101A70005454535352525251515050504F4F4F4E55
:101A80004E4D4D4D4C4C4C4B4B4B4A4A4A494949A3
:101A900048484847474747464646454545444444E5
:101AA000444343434342424242414141002B9C460E
:101AB00030D477002BD01CB54FEA370703B44FF072
:101AC00010004FF01001BAF1000F06D0BCF1000F6A
:101AD000DCBF40F0080040F008014FF000000FBCF0
:101AE000BDE810400BF1010BBBF1010F08BF5FEA2D
:101AF000170722BF12F1010211F101014FF000415D
:101B000043F1000300F0004043EA00007047F9D3BE
:101B10005708D0E746EA064613F1400F4FEA16464B
:101B20001FDD13F1200FDFBF16430A4600212033CB
:101B30005B42BED0C3F1200746EA064602FA07F729
:101B40004FEA164646EA0706C3F1200722FA03F2D7
:101B500001FA07F721FA03F14FF0000342EA070206
:101B6000A7E746EA020646EA06464FEA164646EA6E
:101B70000106BCBF46EA0646360C4FF000034FF0A4
:101B800000024FF0000194E72DE9804C9A469346FD
:101B900070B491E8380007C831EA400C48BF34EA15
:101BA000430C03D5FFF7E6FDFFF780FFF0BCBDE86F
:101BB000008C2DE9804C9A46934670B491E8380029
:101BC00007C810F0804F08BF13F0804F03D100F01A
:101BD00005F8FFF76BFFF0BCBDE8008C20F07F47F5
:101BE00080EA030023F07F4C07EB0C03A3F57C5342
:101BF00000F00040A3F1FE0392F0000F00F0B3806C
:101C000095F0000F00F077802DE901494FEA11406F
:101C10004FEA144621EA004800FB06FC24EA064786
:101C200008FB06F607FB08F800FB07F718EB064869
:101C30004CEB164C4FEA124B18EB07484FEA15468F
:101C40004CEB174022EA0B4E0BFB06FC25EA06473D
:101C50000EFB06F607FB0EFE0BFB07F71EEB064E10
:101C60004CEB164C4FF000061EEB074E4CEB174B9F
:101C700018EB0B0840F1000018EB0E0B58EB0008B6
:101C800040F100008F1A4FF000013CBFC943661BB2
:101C900014BFB5EB040C00213CBFC943F61B4FEA4F
:101CA00017444EEA8E0E27EA04454FEA1C4704FB10
:101CB00007622CEA074C05FB07F70CFB05F604FB53
:101CC0000CFC16EB074642EB174216EB0C4642EBB8
:101CD0001C421BEB060658EB0202414146EA9E06F7
:101CE00001D5BDE80189B619524141EB0101A3F1CB
:101CF0000103BDE801894FEA14454FEA114724EA80
:101D0000054621EA074C05FB07F406FB07F70CFB29
:101D100006F105FB0CFC11EB074144EB17444FEABD
:101D2000124711EB0C4144EB1C4422EA074C05FB23
:101D300007F206FB07F70CFB06F605FB0CFC16EB9F
:101D4000074642EB174216EB0C4642EB1C456A185D
:101D500054F1000148BF7047B619524141EB0101EF
:101D6000A3F10103704795F0000F37D04FEA1142FD
:101D70004FEA144721EA024624EA074C02FB07F126
:101D800006FB07F70CFB06F402FB0CFC14EB074404
:101D900041EB17414FEA154714EB0C4441EB1C4152
:101DA00025EA074C02FB07F506FB07F70CFB06F6D6
:101DB00002FB0CFC16EB074645EB174516EB0C46F1
:101DC00045EB1C42121951F1000148BF7047B6198A
:101DD000524141EB0101A3F1010370474FEA144561
:101DE0004FEA114724EA054621EA074C05FB07F1B3
:101DF00006FB07F70CFB06F24FF0000605FB0CFC98
:101E000012EB074241EB174112EB0C4251EB1C4124
:101E100048BF7047921841EB0101A3F101037047DD
:101E200000B587B000BF002001903748006840F43B
:101E30008070354908600846006800F480700190A1
:101E400000BF00BF00BF002001902F481438006879
:101E500040F004002C49143908600846006800F07E
:101E60000400019000BF00BF00BF002001900846A1
:101E7000006840F0020008600846006800F00200B8
:101E8000019000BF00BF00BF00200190084600681D
:101E900040F0010008600846006800F00100019071
:101EA00000BF00BF03200390029000200490022096
:101EB000059002A9154801F0E9FE3F20029002A911
:101EC000134801F0E3FE4020029002A9114801F0FE
:101ED000DDFE1148114908604FF480304860002150
:101EE0000E488160C160016141618161012101622F
:101EF0000021416281620A49C16200210163C1611E
:101F000000F070FF07B000BD4438024000040240FA
:101F1000000802400000024000200140B40A0020F6
:101F20000100000F5A49096821F44031594AC2F8AA
:101F300004131146D1F8041342681143544A116046
:101F40000168496821F480710268516001684A683B
:101F5000016942EA0121026851600168496821F083
:101F600040710268516001684968826811430268E3
:101F700051600168896821F400610268916001681C
:101F80008968C268114302689160434AC16A9142FC
:101F900018D00168896821F0706102689160016859
:101FA0008968C26A1143026891600168896821F0FA
:101FB00040510268916001688968026B11430268B0
:101FC00091600BE00168896821F07061026891609E
:101FD0000168896821F04051026891600168896850
:101FE00021F002010268916001688A68816942EA11
:101FF000410102689160416AD1B10168496841F4C8
:102000000061026851600168496821F4604102681A
:10201000516001684A68816A491E4FF4604393FA2F
:10202000A3F3B3FA83F399400A4301684A6005E0D9
:102030000168496821F40061026851600168C96A59
:1020400021F470010268D1620168CA6A018C491EDC
:1020500042EA01510268D1620168896821F4007185
:102060000268916001688A68C16942EA4121026898
:1020700091600168896821F480610268916001685B
:102080008A68416942EA81210268916070470000D4
:1020900004230140002001400100000F10B5974BC0
:1020A0001A88D31702EB5373DB10A2EBC30373B987
:1020B00043071B0E914C2288D41702EB5474E41092
:1020C0000B558E4A1288D21C8C4B1A8015E18B4B13
:1020D0001A88D31702EB5373DB10A2EBC303012B57
:1020E00018D1864B1B885A1ED31702EB5373DB1093
:1020F000CB5C43EA0013DCB2804B1B885A1ED3171B
:1021000002EB5373DB10CC547C4A1288D21C7B4BFD
:102110001A80F2E0794B1A88D31702EB5373DB1065
:10212000A2EBC303022B18D1744B1B889A1ED31742
:1021300002EB5373DB10CB5C43EAC003DCB26F4BA2
:102140001B889A1ED31702EB5373DB10CC546B4AD7
:102150001288D21C694B1A80CFE0684B1A88D317BB
:1021600002EB5373DB10A2EBC303032B18D1634BB9
:102170001B88DA1ED31702EB5373DB10CB5C43EAE8
:102180008003DCB25D4B1B88DA1ED31702EB53735E
:10219000DB10CC54594A1288D21C584B1A80ACE040
:1021A000564B1A88D31702EB5373DB10A2EBC30311
:1021B000042B18D1514B1B881A1FD31702EB5373F2
:1021C000DB10CB5C43EA4003DCB24C4B1B881A1F8C
:1021D000D31702EB5373DB10CC54484A1288D21C3D
:1021E000464B1A8089E0454B1A88D31702EB53738C
:1021F000DB10A2EBC303052B16D1404B1B885A1FE3
:10220000D31702EB5373DB10CB5C03433B4C2488A6
:10221000621FD41702EB5474E4100B55374A12882E
:10222000D21C364B1A8068E0344B1A88D31702EB65
:102230005373DB10A2EBC303062B2AD12F4B1B8851
:102240009A1FD31702EB5373DB10CB5C43EA600495
:102250002A4B1B889A1FD31702EB5373DB10CC5405
:10226000264B1B889A1CD31702EB5373DB10CB5CF5
:1022700043EAC013DCB2214B1B889A1CD31702EB34
:102280005373DB10CC541D4A1288D21C1B4B1A808E
:1022900033E01A4B1A88D31702EB5373DB10A2EB0F
:1022A000C303072B29D1154B1B88DA1FD31702EB69
:1022B0005373DB10CB5C43EAA004104B1B88DA1F7E
:1022C000D31702EB5373DB10CC540C4B1B885A1CF6
:1022D000D31702EB5373DB10CB5C43EA8013DCB201
:1022E000064B1B885A1CD31702EB5373DB10CC54DC
:1022F000024A1288D21C014B1A8010BDB80000207F
:1023000010B5134800781349097888421FD0104847
:10231000007810490870012000F046F8022000F013
:1023200043F8032000F040F8042000F03DF84FF49B
:10233000FA7007F021FD012000F00EF8022000F0F5
:102340000BF8032000F008F8042000F005F810BD99
:102350000E0F00202800002010B50446012C05D1E6
:102360009FED0F0A00210F4804F092FB022C05D1CB
:102370009FED0B0A04210B4804F08AFB032C05D1C6
:102380009FED070A0821074804F082FB042C05D1C1
:102390009FED030A0C21034804F07AFB10BD0000F6
:1023A000CDCCCC3C180C002010B50446012C05D136
:1023B0009FED0F0A00210F4804F06AFB022C05D1A3
:1023C0009FED0B0A04210B4804F062FB032C05D19E
:1023D0009FED070A0821074804F05AFB042C05D199
:1023E0009FED030A0C21034804F052FB10BD0000CE
:1023F00090C2753D180C00202DED048B84B037E0A1
:102400001C48807801280DD11B4804F097F910EE84
:10241000100A1A49C8611A4804F090F910EE100A1F
:102420001849C861184804F089F9B0EE408A134889
:1024300004F084F9F0EE408A124804F07FF9B0EE1F
:10244000409A6846B0EE481AF0EE680A05F0A4F823
:102450000E490098C8610E490198C8610D4902985B
:10246000C8610D490398C861052007F085FC00BFCD
:10247000C6E700000E0F0020640300203403002094
:102480009403002004030020D4020020E401002073
:1024900014020020440200207402002010B5002124
:1024A000014802F061FF10BD5C0A002010B5002158
:1024B000034802F033FF9FED030A05F0FBFA10BD5D
:1024C0005C0A00203333733F10B54FF4007003F003
:1024D000EDF9FFF7EBFFFA2000F0B5FB4FF41070B9
:1024E00003F0E4F9FFF7E2FFFA2000F0ACFB4FF451
:1024F000407003F0DBF9FFF7D9FFFA2000F0A3FBEF
:10250000FFF7CCFF4FF4FA6003F0D0F910BD00BF25
:10251000FEE7000010B5024800F026FD10BD0000E7
:10252000F80A002010B5024800F01EFD10BD0000A2
:10253000F80A002010B5024800F016FD10BD00009A
:10254000380B002010B5024800F00EFD10BD000051
:10255000380B002070B504460D46206800F5D87091
:1025600000EB0510006800F00400616B8860606B90
:10257000806860B9206800F5D87000EB051000682D
:1025800040F2FF7101EA5050616B08600BE0206877
:1025900000F5D87000EB051000686FF0604101EAAB
:1025A000D000616B4860206800F5D87000EB051022
:1025B000006800F00200616BC860206800F5D87008
:1025C00000EB0510406800F00F00616B08612068A7
:1025D00000F5D87000EB05104068C0F30720616B70
:1025E000C861206800F5D87000EB05108068616B49
:1025F0000875206800F5D87000EB05108068010AA6
:10260000606B4175206800F5D87000EB051080689C
:10261000010C606B8175206800F5D87000EB051027
:102620008068000E616BC875206800F5D87000EBFB
:102630000510C068C1B2606B0176206800F5D870E3
:1026400000EB0510C068010A606B4176206800F558
:10265000D87000EB0510C068010C606B81762068B3
:1026600000F5D87000EB0510C068000E616BC876ED
:102670004DB920202168C8602068406920F0020020
:102680002168486108E020202168086120684069CD
:1026900020F010002168486194F8380022281DD1EC
:1026A0002068406920F48070216848612068406992
:1026B00020F40070216848612068406920F480603F
:1026C000216848612068406920F400602168486101
:1026D0002068406920F400402168486194F838007F
:1026E000322803D1122084F8380002E0012084F857
:1026F0003800204600F0F0FE002070BD10B5044602
:102700002068406920F001002168486194F8380091
:1027100012281DD12068406920F48070216848612A
:102720002068406920F40070216848612068406991
:1027300020F48060216848612068406920F40060CE
:10274000216848612068406920F4004021684861A0
:1027500094F83800322803D1222084F8380002E0AF
:10276000012084F83800204601F08EF8002010BDCA
:1027700012E007F0EBF90949094800F0FBF807F00F
:102780000FFA064804F084FD064804F0CDFC04F07E
:10279000C1FD642007F0F0FAEBE700009C01002087
:1027A00044010020CC01002008B500BF00200090AB
:1027B0001448006840F0200012490860084600688C
:1027C00000F02000009000BF00BF13200E490860F9
:1027D0005920091F08600C482038006840F00100AB
:1027E00009492039086008482C38006840F0010089
:1027F00005492C390860042337220021032003F007
:10280000D3FC08BD403802402C14004095E04B48F2
:10281000006800EE100AB5EEC00AF1EE10FA23D0FF
:102820004648406800EE100AB5EEC00AF1EE10FA14
:102830001AD042480068424908604048406841490F
:1028400008603E488068404908603C4800683F494D
:1028500008603A4840683E490860384880683D4909
:10286000086000203C4908703448006800EE100AF7
:10287000B5EEC00AF1EE10FA27D13048406800EEFC
:10288000100AB5EEC00AF1EE10FA1ED12B4880688E
:1028900000EE100AB5EEC00AF1EE10FA15D12E487E
:1028A000007890B92D4890ED000A2D4880ED000A7F
:1028B0002C4890ED000A2C4880ED000A2B48006857
:1028C0002B4908600120244908702348007801281A
:1028D00030D1224890ED000A2148D0ED000A30EEB8
:1028E000600A1A48D0ED000A30EE200A144880ED44
:1028F000000A1C4890ED000A1B48D0ED000A30EE9B
:10290000600A1348D0ED000A30EE200A0D4880ED31
:10291000000A1648006800EE100A1548D0ED000ABB
:1029200030EE600A0B48D0ED000A30EE200A06486F
:1029300080ED000A022007F01FFA68E71A0F002056
:102940002C0000203000002034000020380000203F
:102950003C000020400000205000002060000020CB
:1029600044000020640000204800002054000020A3
:102970004C0000202DE9F04104460D460026302190
:102980002846FDF7D4FE00BF05E004EB4600407882
:10299000A855701CC6B2072EF7DB002605E014F818
:1029A0001610F01D2954701CC6B2072EF7DB00204C
:1029B0002049088000261FE0002719E0C7EBC70365
:1029C00004F10E021A44925DC2F38101C7EBC70302
:1029D00004F10E021A44925D02F0030000F02CF89C
:1029E000804605F10F014046FFF758FB781CC7B23F
:1029F000092FE3DB701CC6B2072EDDDB4E20005D25
:102A000085F8270014F84D1F28204155207905F836
:102A1000290F607900F07F00687060794D3CC00933
:102A2000A870293DB4F85500A885B4F85310E9857D
:102A3000BDE8F081B8000020024639B9012A01D171
:102A400003207047022A0FD10420FAE7012907D199
:102A5000012A01D10120F4E7022A05D10220F0E782
:102A6000022901D10020ECE70020EAE700B589B097
:102A700000BF002001901F48006840F000501D4931
:102A800008600846006800F00050019000BF00BFD9
:102A900000BF0020019017481038006840F0010086
:102AA0001449103908600846006800F001000190E0
:102AB00000BF00BF10200490032005900020069066
:102AC00004A90D4801F0E2F80C480D4908600846D9
:102AD00000F008FF0020029002200390002202A9CB
:102AE000074800F0D2FE0021054800F010FF09B0B1
:102AF00000BD000040380240000002400074004069
:102B0000780B002000B589B000BF002001901F485D
:102B1000006840F000501D4908600846006800F059
:102B20000050019000BF00BF00BF00200190174877
:102B30001038006840F00100144910390860084658
:102B4000006800F00100019000BF00BF2020049049
:102B5000032005900020069004A90D4801F096F886
:102B60000C480D490860084600F0BCFE00200290A9
:102B700002200390102202A9074800F086FE1021CF
:102B8000054800F0C4FE09B000BD00004038024016
:102B900000000240007400408C0B002008B500BF0C
:102BA000002000900A48006840F48000084908604E
:102BB0000846006800F48000009000BF00BF0022BB
:102BC00011463A2001F0C0F93A2001F0B0F908BDF1
:102BD0003038024010B5024800F0E0FE10BD0000A1
:102BE000D80D00200146087810381823B0FBF3F206
:102BF0000848805C4865032A05D908686FF3090016
:102C0000001D086503E008686FF309000865086D9A
:102C100070470000A2BE000830B50468246824F4A0
:102C2000802405682C60046863608468402C04D1AB
:102C30000468A2600468E16003E00468A1600468BD
:102C4000E26030BD704710B503464FF47A7003FB65
:102C500000F4204600F001F810BD002100BFBCE0E8
:102C600000BF00BF00BF00BF00BF00BF00BF00BF6C
:102C700000BF00BF00BF00BF00BF00BF00BF00BF5C
:102C800000BF00BF00BF00BF00BF00BF00BF00BF4C
:102C900000BF00BF00BF00BF00BF00BF00BF00BF3C
:102CA00000BF00BF00BF00BF00BF00BF00BF00BF2C
:102CB00000BF00BF00BF00BF00BF00BF00BF00BF1C
:102CC00000BF00BF00BF00BF00BF00BF00BF00BF0C
:102CD00000BF00BF00BF00BF00BF00BF00BF00BFFC
:102CE00000BF00BF00BF00BF00BF00BF00BF00BFEC
:102CF00000BF00BF00BF00BF00BF00BF00BF00BFDC
:102D000000BF00BF00BF00BF00BF00BF00BF00BFCB
:102D100000BF00BF00BF00BF00BF00BF00BF00BFBB
:102D200000BF00BF00BF00BF00BF00BF00BF00BFAB
:102D300000BF00BF00BF00BF00BF00BF00BF00BF9B
:102D400000BF00BF00BF00BF00BF00BF00BF00BF8B
:102D500000BF00BF00BF00BF00BF00BF00BF00BF7B
:102D600000BF00BF00BF00BF00BF00BF00BF00BF6B
:102D700000BF00BF00BF00BF00BF00BF00BF00BF5B
:102D800000BF00BF00BF00BF00BF00BF00BF00BF4B
:102D900000BF00BF00BF00BF00BF00BF00BF00BF3B
:102DA00000BF00BF00BF00BF00BF00BF00BF00BF2B
:102DB00000BF00BF00BF00BF00BF00BF00BF00BF1B
:102DC00000BF00BF00BF00BF00BF00BF00BF00BF0B
:102DD00000BF00BF00BF00BF491C8142FFF440AFED
:102DE0007047000010B504460CB9012010BD104911
:102DF000E06A884200D000BF94F83D0028B9002066
:102E000084F83C00204600F015F8022084F83D00CC
:102E10002046FFF787F800202064012084F83D0059
:102E200000BF002084F83C0000BF00BFDEE70000C8
:102E30000100000F7047000030B5034600220C7DF2
:102E4000012000FA04F24648006840F00100444CBA
:102E500020602046006820F47C50206020460068F6
:102E60004C6A40EA04203E4C20603D481C3000681B
:102E700090433B4C1C342060C869D8B938480C30AA
:102E800000689043364C0C342060888880B28C896E
:102E900040EA0444324840304D6940F835400888E3
:102EA00080B20C8940EA04442D4840304D6900EB63
:102EB000C5004460C86901281BD129480C3000684E
:102EC0001043274C0C342060888880B20C8840EA7C
:102ED0000444234840304D6940F83540888980B229
:102EE0000C8940EA04441E4840304D6900EBC5009F
:102EF0004460886938B91A48001D00689043184C2E
:102F0000241D206006E01648001D00681043144C84
:102F1000241D2060086930B91148143000689043BE
:102F20000F4C143420600869012806D10C48143075
:102F3000006810430A4C14342060086A012806D146
:102F400007481C3000681043054C1C3420600448BE
:102F5000006820F00100024C2060002030BD00001D
:102F600000660040704700002DE9F041044600254E
:102F7000002600272068406900F0010018B320688F
:102F8000806869490840884201D1012000E00020A2
:102F900005462068806865490840884201D10120C3
:102FA00000E00020064620688068614908408842A9
:102FB00001D1012000E0002007460DB906B917B184
:102FC0002046FFF79BFB2068C06800F003052068DF
:102FD0004069C0F3400625B11EB100212046FFF72D
:102FE000B9FA2068006900F0030520684069C0F361
:102FF000001625B11EB101212046FFF7ABFA20686B
:10300000806900F0010520684069C0F3002620684F
:103010004069C0F3C0372DB126B11FB1E06B40F05D
:103020000100E06320688069C0F3400520684069C2
:10303000C0F3402620684069C0F3C0372DB126B1E7
:103040001FB1E06B40F00200E06320688069C0F3CC
:10305000800520684069C0F3802620684069C0F37D
:10306000C0372DB126B11FB1E06B40F00400E06322
:103070002068806900F0700008B9012000E000209D
:10308000054620684069C0F3C02620684069C0F347
:10309000C03795BB8EB387B32068806900F0700598
:1030A000402D1BD006DC102D09D0202D0CD0302D4A
:1030B00024D10EE0502D16D0602D1FD118E0E06B0A
:1030C00040F00800E0631AE0E06B40F01000E063BD
:1030D00015E0E06B40F02000E06310E0E06B40F0B2
:1030E0004000E0630BE0E06B40F08000E06306E04E
:1030F000E06B40F48070E06301E007E000BF00BFD8
:103100002068806920F0700021688861E06B40B120
:10311000042021684860012084F838002046FFF729
:1031200021FFBDE8F0810000030000040003000857
:103130000000031070B50446032600250CB90120D9
:1031400070BD94F8380028B9002084F83900204672
:1031500000F0D0F8022084F838002068006820F0E1
:103160000200216808602068006840F001002168C2
:10317000086000F09FFE05460EE000F09BFE401B3D
:103180000A2809D9032084F8380000BF002084F8F9
:10319000390000BF0320D3E72068406800F0010039
:1031A0000028EAD02068406800F0010008B9002635
:1031B00092E0A069012806D12068006840F08000F4
:1031C0002168086005E02068006820F08000216820
:1031D0000860E069012806D12068006840F04000DE
:1031E0002168086005E02068006820F04000216840
:1031F0000860206A012806D12068006840F020009D
:103200002168086005E02068006820F0200021683F
:103210000860606A012806D12068006840F010004C
:103220002168086005E02068006820F0100021682F
:103230000860A06A012806D12068006840F00800F4
:103240002168086005E02068006820F00800216817
:103250000860E06A012806D12068006840F0040098
:103260002168086005E02068006820F004002168FB
:103270000860D4E9020108432169084361690843F1
:103280006168491E08432168C8612068006820F011
:1032900001002168086000F00DFE05460EE000F018
:1032A00009FE401B0A2809D9032084F8380000BF12
:1032B000002084F8390000BF032041E720684068FF
:1032C00000F001000028EAD12068406800F0010009
:1032D00008B1002600E00126012E06D10020E0639F
:1032E000012084F8380000202AE7042084F8380000
:1032F000012025E710B586B004464649206888427B
:1033000040D100BF002000904348006840F0080012
:10331000414908600846006800F00800009000BFBE
:1033200000BF00BF002000903B481030006840F014
:1033300000703949103108600846006800F00070DC
:10334000009000BF00BF03200190022002900020E7
:103350000390032004900920059001A92F4800F054
:1033600095FC00221146132000F0EEFD132000F022
:10337000DEFD00221146142000F0E6FD142000F0CE
:10338000D6FD44E026492068884240D100BF002095
:1033900000902148006840F002001F49086008467C
:1033A000006800F00200009000BF00BF00BF0020D6
:1033B000009019481030006840F0806016491031C4
:1033C00008600846006800F08060009000BF00BF01
:1033D0004FF44050019002200290002003900320FF
:1033E00004900920059001A90E4800F04FFC00222E
:1033F00011463F2000F0A8FD3F2000F098FD00227C
:103400001146402000F0A0FD402000F090FD06B0E5
:1034100010BD00000064004030380240000C024043
:10342000006800400004024010B50246002392F8F4
:103430003830012B01D0122B49D100BF92F839004E
:10344000012801D1022010BD012082F8390000BFFF
:1034500092F83800122803D1322082F8380002E0B6
:10346000222082F838000020D0631068406940F4C0
:103470008070146860611068406940F400701468DE
:1034800060611068406940F4806014686061106891
:10349000406940F40060146860611068406940F45D
:1034A00000401468606100BF002082F8390000BF4E
:1034B00031B91068406940F002001468606108E0AA
:1034C0001068406940F010001468606101E002205B
:1034D000B9E70020B7E7000030B50446606B00682C
:1034E00040F20522811A904218D009DCA0F2012096
:1034F00080B101280FD002280ED0032875D10CE02E
:1035000001290CD002290BD003290AD0B1F5FE7F86
:103510006BD135E000BF00BF00BF00BF00BF00BFE0
:1035200000BF606B0078401EC5B205EB85003849CE
:1035300001EBC000416A05EB8500354A02EBC00093
:10354000406A401C05EB8502314B03EBC20250621E
:10355000322908D805EB85011A4602EBC100214645
:1035600005F071F907E005EB8501294A02EBC1007E
:10357000214605F026F92146264805F022F934E0D7
:10358000606B007D0106606B407D41EA0041606B2D
:10359000807D41EA0020616BC97D084300EE100A7E
:1035A000B8EEC00ADFED1C0A20EE200A10EE100A69
:1035B0001A490860606B007E0106606B407E41EA3C
:1035C0000041606B807E41EA0020616BC97E084348
:1035D00000EE100AB8EEC00ADFED0F0A20EE200A56
:1035E00010EE100A0D49486000BF00BF0C4800688B
:1035F000406940F002000A490968486109480068CA
:10360000406940F0020007490968486130BD000088
:1036100010080020500900206F12833A5400002047
:10362000F80A0020380B00202DE9F04104460E4630
:103630000525002700BF94F83900012802D1022097
:10364000BDE8F081012084F8390000BF94F838000B
:10365000222803D1322084F8380002E0122084F8B6
:1036600038002068806800F08060B0F1806F01D180
:10367000002512E02068806800F00060B0F1006F63
:1036800001D1012509E02068806800F08050B0F188
:10369000805F01D1022500E00425042D7ED0206842
:1036A00000F5C07000EB0510006800F00101206813
:1036B00000F5C07000EB05100160206B806898B9C0
:1036C000206800F5C07000EB05100068216BC96828
:1036D000226B128841EA42510843216801F5C0710A
:1036E00001EB0511086015E0206800F5C07000EBE3
:1036F00005100068216B8968226B526841EAC2019B
:10370000226BD26811430843216801F5C07101EBB7
:1037100005110860206B007C00F00F00216B086130
:10372000206800F5C07000EB0510406820F00F0124
:10373000206800F5C07000EB05104160206800F5BE
:10374000C07000EB05104068216B096908432168CF
:1037500001F5C07101EB05114860206BC07D0106C9
:10376000206B807D41EA0041206B407D41EA0021D1
:10377000206B007D0143206800F5C07000EB051050
:103780008160206BC07E0106206B807E41EA004193
:10379000206B407E41EA0020216B00E063E0097E5F
:1037A0000843216801F5C07101EB0511C86020686C
:1037B00000F5C07000EB0510006840F001012068C2
:1037C00000F5C07000EB0510016000F073FB0746C8
:1037D00011E0701C78B126B100F06CFBC01BB04248
:1037E00009D9032084F8380000BF002084F839008C
:1037F00000BF032024E74DB9206880681F490840B6
:10380000884201D1012016E0002014E0012D09D1E9
:10381000206880681A490840884201D101200AE0E6
:10382000002008E02068806816490840884201D1DD
:10383000012000E000200028CBD094F83800322886
:1038400007D1222084F8380000BF002084F8390016
:1038500007E0012084F8380000BF002084F8390018
:1038600000BF0020ECE6042084F8380000BF0020F0
:1038700084F8390000BF0120E2E6000003000004E4
:103880000003000800000310704770B503460024D1
:10389000002500BF5879012801D1022070BD012008
:1038A000587100BF022018711868046840F6FE7055
:1038B00090408443D1E9000640EA060505FA02F08B
:1038C00004431868046018680668C0209040864366
:1038D000186806600120187100BF0020587100BFF1
:1038E00000BFDBE710B504460CB9012010BD2079FC
:1038F00020B900206071204600F008F802202071F5
:1039000000202061012020710020EFE7704730B5D2
:1039100002460023002400BF5079012801D1022073
:1039200030BD0120507100BF022010711068006886
:1039300001258D4028431568286091B910680068FA
:1039400000F004031068006800F03804042B1CD158
:10395000382C1AD11068406840F001001568686082
:1039600013E01068006800F480231068006800F419
:103970006014B3F5802F08D1B4F5601F05D110682D
:10398000406840F00200156868600120107100BFB7
:103990000020507100BF00BFC2E7000070B50446B0
:1039A000256D286894F8542008219140084000B300
:1039B0002068006800F00400D8B12068006820F09A
:1039C00004002168086094F8541008208840A8601A
:1039D000E06C40F00100E064042084F8350000BF92
:1039E000002084F8340000BFA06C10B12046A16C08
:1039F0008847286894F854206D499140084000B3E6
:103A00002068406900F08000D8B12068406920F04B
:103A100080002168486194F8541065488840A86087
:103A2000E06C40F00200E064042084F8350000BF40
:103A3000002084F8340000BFA06C10B12046A16CB7
:103A40008847286894F854205949C91C9140084077
:103A500008B32068006800F00200E0B12068006848
:103A600020F002002168086094F854105048C01CEF
:103A70008840A860E06C40F00400E064042084F812
:103A8000350000BF002084F8340000BFA06C10B1E6
:103A90002046A16C8847286894F854201021914052
:103AA0000840C0B32068006800F0080098B32068A0
:103AB000006800F48020B0B194F8541010208840C1
:103AC000A8602068006800F4002018B9312084F84C
:103AD00035001BE02068006800F40020B0B14120F0
:103AE00084F8350012E02068006800F4807028B97E
:103AF0002068006820F008002168086094F85410DD
:103B000010208840A860312084F83500206C10B166
:103B10002046216C8847286894F854202021914041
:103B2000084018B32068006800F01000F0B1206869
:103B3000006800F48020D0B194F854102020884010
:103B4000A8602068006800F4002028B9606C68B1A3
:103B50002046616C884729E02068006800F4002056
:103B600020B1E06B10B12046E16B88471EE0206871
:103B7000006800F4807028B92068006820F0100008
:103B80002168086094F8541020208840A860E06CF8
:103B9000E064112084F8350000BF002084F8340070
:103BA00000BFE06B10B12046E16B884770BD00009C
:103BB0000100800070B5044600250CB9012070BDDD
:103BC000606A00B100BF022084F8350020680568F3
:103BD00018480540D4E901010843E1680843216918
:103BE000084361690843A1690843E1690843216A00
:103BF00008430543606A042803D1D4E90B01084354
:103C00000543206805602068456925F00705606A5E
:103C10000543606A042801D1A06A05432068456114
:103C20002046FEF7DFFF0020E064012084F8350025
:103C30000020C4E73F8010F02DE9F04104460D4616
:103C400016461F4600BF94F83400012802D1022016
:103C5000BDE8F081012084F8340000BF022084F820
:103C600035002068006820F00100216808603B46AC
:103C7000324629462046FEF7CFFF2068006840F014
:103C80000100216808600020E2E70000F8B5024664
:103C90000B460025002400200021E6E0012606FA5C
:103CA00001F51E6806EA0504AC4273D15E68022E77
:103CB00002D05E68122E13D1CF0802F1200656F80A
:103CC00027004E07F70E0F26BE40B0434F07FF0EEA
:103CD0001E69BE403043CF0802F1200646F8270097
:103CE00010684F000326BE40B0431E7906F003065D
:103CF0004F00BE40304310605E68012E08D05E6801
:103D0000022E05D05E68112E02D05E68122E13D1ED
:103D100090684F000326BE40B0434F00DE68BE40AF
:103D200030439060506801268E40B0431E79C6F340
:103D300000168E4030435060D0684F000326BE40CE
:103D4000B0434F009E68BE403043D0605E6806F0CE
:103D50008056B6F1805FA8D100BF00260096454E80
:103D6000366846F48046434F3E603E46366806F469
:103D70008046009600BF00BF3F4E8F0856F82700D0
:103D80008E07370F0F26BE40B0433C4EB24202D1E1
:103D900000262EE068E03A4EB24201D1012628E02A
:103DA000384EB24201D1022623E0374EB24201D151
:103DB00003261EE0354EB24201D1042619E0344EEE
:103DC000B24201D1052614E0324EB24201D106269C
:103DD0000FE0314EB24201D107260AE02F4EB24227
:103DE00001D1082605E02E4EB24201D1092600E09D
:103DF0000A268F073F0FBE4030431F4E8F0846F8FC
:103E00002700284E3068A0435E6806F48036B6F579
:103E1000803F00D12043234E3060361D3068A043E0
:103E20005E6806F40036B6F5003F00D120431D4E13
:103E3000361D3060361D3068A0435E6806F480167B
:103E4000B6F5801F00D12043164E08363060361D6F
:103E50003068A0435E6806F40016B6F5001F00D176
:103E60002043104E0C363060491C1029FFF416AF69
:103E7000F8BD00004438024008380140000002400C
:103E80000004024000080240000C02400010024002
:103E90000014024000180240001C024000200240B2
:103EA00000240240003C01400AB1816101E00B04A2
:103EB000836170470148006870470000400100209E
:103EC00002480068401C014908607047400100201A
:103ED00010B50C48006840F400700A4908600846B4
:103EE000006840F4806008600846006840F4807014
:103EF0000860032000F066F800F0D8FF00F016F824
:103F0000002010BD003C024070B5044600F018FAD5
:103F10004FF47A71B0FBF1F5284600F0ACFF0022B7
:103F20002146501E00F010F8002070BD704700BF01
:103F300000F01F02012191404209920002F1E022AB
:103F4000C2F8001100BF70472DE9F05F80460D46B2
:103F50001646002702F0DAFA074639462A46334663
:103F600001F00700C0F1070ABAF1040F02D94FF0BF
:103F7000040A01E0C0F1070AD14600F1040ABAF1CF
:103F8000070F02D24FF0000A01E0A0F1030AD44665
:103F90004FF0010A0AFA09FAAAF1010A0AEA020A2A
:103FA0000AFA0CFA4FF0010B0BFA0CFBABF1010B08
:103FB0000BEA030B4AEA0B042146404602F0AEFA34
:103FC000BDE8F09F00BF00F00702064B19684FF6EE
:103FD000FF031940044B0B4343EA0221014B1960D4
:103FE00000BF70470CED00E00000FA0538B5002472
:103FF00000BF002000902348006840F08050214915
:1040000008600846006800F08050009000BF00BFC4
:104010000120010491FAA1F1B1FA81F11A4A42F8A2
:104020002100FFF747FF044607E0FFF743FF001BAF
:10403000B0F57A7F01D9032038BD1448406800F4F8
:104040008030B0F5803FF0D10120410491FAA1F118
:10405000B1FA81F10C4A42F82100FFF72BFF044628
:1040600007E0FFF727FF001BB0F57A7F01D9032097
:10407000E2E70648406800F40030B0F5003FF0D1B8
:104080000020D9E74038024000000E420070004096
:1040900070B504460E460025A748006800F00F00E2
:1040A000B0426FD2A4490E700846006800F00F00BD
:1040B000B04201D0012070BD207800F0020002283B
:1040C00007D19E48006820F0F000A16808439B4992
:1040D0000860207800F0010000283ED060680128C8
:1040E00007D1964808380068C0F34040B8B90120AD
:1040F000E1E76068022802D06068032807D18F4892
:1041000008380068C0F3406048B90120D3E78B4805
:1041100008380068C0F3400008B90120CBE78748A1
:10412000006820F003006168084384490860FFF7D5
:10413000C1FE05466068012810D108E0FFF7BAFE0D
:10414000401B41F28831884201D90320B3E77B4804
:10415000006800F00C000428F0D1CDE0606802286F
:1041600011D108E0FFF7A6FE401B41F288318842DA
:1041700001D903209FE77148006800F00C0008286F
:10418000F0D1B9E024E06068032810D108E0FFF71F
:1041900091FE401B41F28831884201D903208AE711
:1041A0006648006800F00C000328F0D1A4E008E0A5
:1041B000FFF780FE401B41F28831884201D903207D
:1041C00079E75E48006800F00C000028F0D193E029
:1041D000207800F00200022807D15848006820F03B
:1041E000F000A168084355490860207800F00100FC
:1041F000002877D06068012807D150480838006847
:10420000C0F34040B8B9012055E76068022802D0E9
:104210006068032807D1494808380068C0F3406047
:1042200048B9012047E7454808380068C0F3400016
:1042300008B901203FE74148006820F003006168A9
:1042400008433E490860FFF735FE054660680128CF
:1042500010D108E0FFF72EFE401B41F28831884262
:1042600001D9032027E73548006800F00C00042836
:10427000F0D137E06068022810D108E0FFF71AFE9D
:10428000401B41F28831884201D9032013E72B48B3
:10429000006800F00C000828F0D123E060680328D3
:1042A00010D108E0FFF706FE401B41F2883188423A
:1042B00001D90320FFE62148006800F00C00032824
:1042C000F0D10FE008E0FFF7F5FD401B41F2883127
:1042D000884201D90320EEE61848006800F00C007F
:1042E0000028F0D114490E700846006800F00F0055
:1042F000B04201D00120DEE6207800F0040004285E
:1043000007D10E48006820F4E050E16808430B49EB
:104310000860207800F00800082808D107480068E5
:1043200020F46040216940EAC100044908600F2080
:10433000FFF7EAFD0020BEE6003C024008380240DC
:1043400010B500F045F80949096801F0F001F022C4
:1043500092FAA2F2B2FA82F2D140054A515CC84008
:10436000044908600846006810BD00000838024093
:10437000AABE00080400002010B5FFF7E1FF0749BE
:10438000096801F4E0514FF4E05292FAA2F2B2FA55
:1043900082F2D140024A515CC84010BD0838024048
:1043A000AABE000810B5FFF7CBFF0749096801F462
:1043B00060414FF4604292FAA2F2B2FA82F2D14026
:1043C000024A515CC84010BD08380240AABE00082D
:1043D00070B50021002200230020274C246804F03F
:1043E0000C0424B1042C04D0082C41D103E0234850
:1043F00040E023483EE0204C241F246804F03F01A5
:104400001D4C241F246804F4800484B11C4CB4FBAC
:10441000F1F5194C241F246847F6C076344096FA0B
:10442000A6F6B6FA86F6F44005FB04F20FE0134C4C
:10443000B4FBF1F5104C241F246847F6C0763440D5
:1044400096FAA6F6B6FA86F6F44005FB04F20A4C94
:10445000241F246804F440344FF4403595FAA5F540
:10446000B5FA85F5EC40641C6300B2FBF3F001E0A3
:10447000024800BF00BF70BD0838024080A812018A
:10448000001BB70038B504460025207800F0010075
:10449000002866D0F748006800F00C0004280DD012
:1044A000F448006800F00C00082813D1F148001F00
:1044B000006800F48000B0F5800F0BD1ED4808389B
:1044C0000068C0F3404000284BD06068002848D105
:1044D000012038BD0020E749891F0870FFF7EAFC7A
:1044E000054608E0FFF7E6FC401B41F288318842B0
:1044F00001D90320EDE7DF4808380068C0F34040E9
:104500000028EFD12079DB49891F08706068A0B1CD
:10451000FFF7D0FC054608E0FFF7CCFC401B41F25A
:104520008831884201D90320D3E7D248083800688F
:10453000C0F340400028EFD013E0FFF7BBFC054676
:1045400008E0FFF7B7FC401B41F28831884201D9EF
:104550000320BEE7C74808380068C0F34040002881
:10456000EFD1207800F00200022869D1C14800682C
:1045700000F00C0058B1BF48006800F00C0008289B
:1045800021D1BC48001F006800F48000D8B9B948A8
:1045900008380068C0F3400020B1E068012801D06D
:1045A000012096E7B3480838006820F0F800F822A8
:1045B00092FAA2F2B2FA82F2216991400843AD491F
:1045C000083908603CE0E06828B30120AA49086087
:1045D000FFF770FC054606E0FFF76CFC401B642803
:1045E00001D9032075E7A34808380068C0F34000EC
:1045F0000028F1D09F480838006820F0F800F82221
:1046000092FAA2F2B2FA82F22169914008439949E2
:104610000839086014E0002097490860FFF74AFC59
:10462000054606E0FFF746FC401B642801D903203D
:104630004FE7904808380068C0F340000028F1D1E7
:10464000207800F0080008282CD16069A8B101206A
:104650008A490860FFF72EFC054606E0FFF72AFCB2
:10466000401B642801D9032033E782486C3000687E
:10467000C0F340000028F1D014E000207F4908601A
:10468000FFF718FC054606E0FFF714FC401B642802
:1046900001D903201DE777486C300068C0F3400063
:1046A0000028F1D1207800F0040004286FD100BF69
:1046B000002000906F483830006840F080506D490D
:1046C000383108600846006800F08050009000BF54
:1046D00000BF6B48006840F4807069490860FFF7CC
:1046E000E9FB054606E0FFF7E5FB401B642801D91E
:1046F0000320EEE66248006800F480700028F2D0E3
:1047000000205C4968310870FFF7D4FB054608E0DB
:10471000FFF7D0FB401B41F28831884201D90320CA
:10472000D7E6544868300068C0F340000028EFD155
:10473000207A504968310870A068A0B1FFF7BAFB31
:10474000054608E0FFF7B6FB401B41F2883188427E
:1047500001D90320BDE6474868300068C0F3400037
:104760000028EFD013E0FFF7A5FB054608E0FFF7B0
:10477000A1FB401B41F28831884201D90320A8E601
:104780003C4868300068C0F340000028EFD1A069C1
:10479000F0B33848006800F00C00082872D0A06917
:1047A000022850D1002034490866FFF783FB0546F4
:1047B00006E0FFF77FFB401B642801D9032088E651
:1047C0002C4808380068C0F340600028F1D1D4E9D3
:1047D0000701084347F6C07292FAA2F2B2FA82F2D7
:1047E000616A914008430122A16AC2EB51014FF472
:1047F000403292FAA2F2B2FA82F2914008434FF0AC
:10480000706292FAA2F2B2FA82F2E16A914000E09A
:104810003AE008431749091F086001201649086655
:10482000FFF748FB054606E0FFF744FB401B642802
:1048300001D903204DE60F4808380068C0F34060F6
:104840000028F1D020E000200B490866FFF732FB7A
:10485000054606E0FFF72EFB401B642801D9032024
:1048600037E6044808380068C0F340600028F1D1FA
:104870000AE007E00838024000004742800E474245
:1048800000700040012024E6002022E610B5044616
:104890000CB9012010BD00BF2079012801D10220F0
:1048A000F8E70120207100BF607920B90020207155
:1048B000204600F010F8022060712068006840F087
:1048C0000400216808600120607100BF0020207191
:1048D00000BF00BFDEE7704710B504460CB90120E9
:1048E00010BD94F8510028B9002084F850002046EB
:1048F00000F036F8022084F851002068006820F0AB
:10490000400021680860D4E901010843E1680843D8
:104910002169084361690843218B01F40071084350
:10492000E1690843216A0843A16A084321680860D5
:104930000421A06901EA1040616A084321684860C7
:104940002168E06A08612068C06920F4006021687D
:10495000C86100206065012084F851000020BFE795
:104960007047F8B504460E4615461F4694F85100A8
:10497000012873D106B10DB90120F8BD00BF94F82C
:104980005000012801D10220F7E7012084F85000EF
:1049900000BF122084F85100002060652663A586C0
:1049A000E586E064A064A087E087A06AB0F5005FB8
:1049B0000DD100BF2068006820F400502168086015
:1049C0002068006840F400502168086000BFA068BB
:1049D000B0F5004F05D12068006840F480402168A0
:1049E00008602068006800F04000402805D020687A
:1049F000006840F0400021680860E06878BB6068AB
:104A000010B1E08E012808D1216B481C2063087882
:104A10002168C860E08E401EE08611E03B4600221F
:104A20000221204602F0F6FA08B10320A5E7216B27
:104A3000481C206308782168C860E08E401EE0862C
:104A4000E08E0028EADCA06AB0F5005F38D120686B
:104A5000006840F480502168086031E060E0FFE7C2
:104A6000606810B1E08E012809D1206B00882168B0
:104A7000C860206B801C2063E08E401EE08612E040
:104A80003B4600220221204602F0C4FA08B103206E
:104A900073E7206B00882168C860206B801C20634E
:104AA000E08E401EE086E08E0028E9DCA06AB0F5CA
:104AB000005F05D12068006840F4805021680860DC
:104AC0003B4600220221204602F0A4FA28B1606D84
:104AD00040F02000606503204FE73B460122802123
:104AE000204602F097FA28B1606D40F02000606522
:104AF000032042E7A06850B900BF00200090206862
:104B0000C068009020688068009000BF00BF01204E
:104B100084F8510000BF002084F8500000BF2CE74B
:104B200002202AE72DE9F84F04460E4617461D4697
:104B3000DDF828904FF00008C24694F85180B8F193
:104B4000010F02D0B8F1220F76D10EB107B115B91D
:104B50000120BDE8F88F00BF94F85000012801D172
:104B60000220F6E7012084F8500000BF94F85100BD
:104B7000012802D1322084F8510000206065A7632B
:104B8000A587E5872663A586E586A064E064A06A1C
:104B9000B0F5005F0DD100BF2068006820F4005020
:104BA000216808602068006840F4005021680860AF
:104BB00000BF2068006800F04000402805D0206851
:104BC000006840F0400021680860E068B0F5006FC0
:104BD00075D1606830B16068B0F5827F0CD1E08E2D
:104BE000012809D1206B00882168C860206B801CD7
:104BF0002063E08E401EE086E08EF0B9A06AB0F53A
:104C0000005F05D12068006840F48050216808608A
:104C10004B4600220121204602F0FCF908B1032096
:104C200097E72068C068A16B0880A06B801CA06318
:104C3000E08F401EE087C7E01BE131E04B460022D9
:104C40000221204602F0E6F908B1032081E7206B3B
:104C500000882168C860206B801C2063E08E401EA5
:104C6000E086E08E48B9A06AB0F5005F05D1206803
:104C7000006840F48050216808604B460022012102
:104C8000204602F0C7F908B1032062E72068C06837
:104C9000A16B0880A06B801CA063E08F401EE087A2
:104CA000E08E0028CADC60680028C4D14B46002290
:104CB0000121204602F0AEF910B1032049E70AE0D5
:104CC0002068C068A16B0880A06B801CA063E08F87
:104CD000401EE08778E0606830B16068B0F5827FA0
:104CE0000BD1E08E012808D1216B481C2063087885
:104CF0002168C860E08E401EE086E08ED0B9A06AD0
:104D0000B0F5005F05D12068006840F4805021684C
:104D100008604B4600220121204602F07BF908B1D1
:104D2000032016E72068C068A16B0870E08F401E62
:104D3000E08749E030E04B4600220221204602F0A5
:104D400069F908B1032004E7216B481C2063087847
:104D50002168C860E08E401EE086E08E48B9A06AF7
:104D6000B0F5005F05D12068006840F480502168EC
:104D700008604B4600220121204602F04BF908B1A1
:104D80000320E6E62068C068C1B2A26B501CA06395
:104D90001170E08F401EE087E08E0028CBDC606859
:104DA00090B94B4600220121204602F033F908B1A8
:104DB0000320CEE62068C068C1B2A26B501CA0637D
:104DC0001170E08F401EE087A06AB0F5005F12D13D
:104DD0004B4600220121204602F01CF928B1606DEB
:104DE00040F0020060650320B3E62068C06880B22E
:104DF0000090BDF800004B4601228021204602F0C1
:104E000009F928B1606D40F0200060650320A0E63C
:104E1000012084F8510020688068C0F3001AA06A5D
:104E2000B0F5005F1FD1BAF1000F1CD0606D40F0EB
:104E300002006065A06AB0F5005F0DD100BF206878
:104E4000006820F40050216808602068006840F481
:104E500000502168086000BF00BF002084F85000A7
:104E600000BF012075E600BF002084F8500000BF9D
:104E70006FE602206DE670B504462546681EB0F167
:104E8000807F01D301200FE0681E4FF0E0214861D0
:104E90000F214FF0FF3001F041FB00204FF0E021E7
:104EA000886107200861002070BD000000B512482D
:104EB000006840F002001049086040F2E7300F49F6
:104EC00008605920091F08600C482038006840F02D
:104ED00001000A492039086008482C38006840F071
:104EE000010006492C39086004231D2200210E20F0
:104EF00001F05AF900BD0000403802402C04004087
:104F0000024600BF92F83800012801D10220704704
:104F1000012082F8380000BF022082F83900D1E970
:104F2000000318438B681843CB6818430B69184378
:104F30004B6918438B69184313685864012082F841
:104F4000390000BF002082F8380000BF00BFDEE754
:104F5000024600BF92F83800012801D102207047B4
:104F6000012082F8380000BF022082F83900106862
:104F7000406820F0700013685860106840680B6843
:104F80001843136858601068806820F08000136828
:104F90009860106880684B68184313689860012017
:104FA00082F8390000BF002082F8380000BF00BF3F
:104FB000D5E7000010B586B004462068B0F1804FF8
:104FC0001DD100BF002000904F48006840F0010054
:104FD0004D4908600846006800F00100009000BFDD
:104FE00000BF0F2001900220029000200390049047
:104FF0000120059001A94548FEF748FE82E044499A
:10500000206888421ED100BF002000903E48006802
:1050100040F008003C4908600846006800F00800BD
:10502000009000BF00BF4FF470400190022002903A
:105030000020039004900220059001A93548FEF756
:1050400025FE5FE03449206888423AD100BF002045
:1050500000902D48006840F080002B490860084609
:10506000006800F08000009000BF00BF00BF00207B
:1050700000900846006840F48070086008460068A8
:1050800000F48070009000BF00BF0120019002205A
:1050900002900020039004900220059001A91F486F
:1050A000FEF7F4FD4FF4E050019002200290002042
:1050B000039004900220059001A91948FEF7E6FD2F
:1050C00020E01849206888421CD100BF00200090D1
:1050D0000D48006840F480700B490860084600687D
:1050E00000F48070009000BF00BFE4200190022017
:1050F00002900020039004900320059001A9074826
:10510000FEF7C4FD06B010BD30380240000002407A
:1051100000080040000C0240000C0040002002404B
:10512000001C02400004014070B504460D461646BE
:1051300000BF94F83800012801D1022070BD012081
:1051400084F8380000BF022084F8390036B1042EFC
:105150001BD0082E31D00C2E5ED145E029462068A8
:1051600002F0C8FB2068806940F00800216888616F
:105170002068806920F004002168886120688069C7
:10518000296908432168886147E02946206802F0C0
:10519000E9FB2068806940F400602168886120682C
:1051A000806920F4806021688861206880692969AD
:1051B00040EA0120216888612FE02946206802F03A
:1051C0000DFC2068C06940F008002168C8612068B3
:1051D000C06920F004002168C8612068C06929699D
:1051E00008432168C86118E02946206802F032FCB3
:1051F0002068C06940F400602168C8612068C06907
:1052000020F480602168C8612068C069296940EA8B
:1052100001202168C86100E000BF00BF012084F8C0
:10522000390000BF002084F8380000BF00BF85E7C8
:1052300010B504460CB9012010BD94F8390028B906
:10524000002084F83800204600F00CF8022084F892
:105250003900211D206802F0CDFA012084F83900C0
:105260000020E9E708B50168B1F1804F0FD100BF18
:10527000002100912549096841F00101234A11608C
:105280001146096801F00101009100BF3DE0204A8C
:10529000016891420FD100BF002100911B490968AC
:1052A00041F00401194A11601146096801F0040136
:1052B000009100BF29E0174A016891420FD100BF59
:1052C000002100911149096841F008010F4A11605D
:1052D0001146096801F00801009100BF15E00E4A6F
:1052E0000168914211D100BF002100910749091DB9
:1052F000096841F00201054A121D11601146096852
:1053000001F00201009100BF00BF08BD403802401B
:1053100000080040000C00400004014030B5044685
:105320000D4601222946206802F0D6FA0C49206871
:10533000884203D00B492068884201D1012000E057
:10534000002028B12068406C40F400402168486487
:105350002068006840F0010021680860002030BD2E
:10536000000001400004014030B504460D46002213
:105370002946206802F0B0FA1B492068884203D011
:105380001A492068884201D1012000E0002090B134
:1053900000BF2068006A41F21111084050B920682E
:1053A000006A8910084028B92068406C20F4004049
:1053B0002168486400BF00BF2068006A41F21111F3
:1053C000084050B92068006A8910084028B9206850
:1053D000006820F001002168086000BF012084F807
:1053E0003900002030BD00000000014000040140F1
:1053F0007047014691F839007047F8B5044600251A
:1054000000262068006800F001052068C06800F4EC
:1054100080767DB176B100BF0020009020680068E2
:10542000009020684068009000BF00BFE06B40F033
:105430000100E06320680068C0F34005206840690F
:1054400000F001067DB176B100BF00200090206819
:105450000068009020684068009000BF00BFE06BCB
:1054600040F00400E06320680068C0F38005206815
:10547000406900F001067DB176B100BF00200090C8
:1054800020680068009020684068009000BF00BF5E
:10549000E06B40F00200E06320680068C0F3C005E4
:1054A0002068406900F001067DB176B100BF0020A0
:1054B000009020680068009020684068009000BF5D
:1054C00000BFE06B40F00800E06320680068C0F3B4
:1054D00040152068C06800F020061DB116B12046B6
:1054E00002F012FB20680068C0F3C0152068C06895
:1054F00000F080061DB116B1204602F075FC206850
:105500000068C0F380152068C06800F040061DB137
:1055100016B1204602F0E0FAE06B28B1012084F8D1
:1055200039002046FFF764FFF8BD10B504460CB9FA
:10553000012010BDA06900B100E000BF94F839005F
:1055400028B9002084F83800204600F025F8022011
:1055500084F839002068C06820F400502168C860D1
:10556000204602F02FFB2068006920F4904021685B
:1055700008612068406920F02A002168486120689D
:10558000C06840F400502168C8600020E06301203A
:1055900084F839000020CCE7704730B5034600247A
:1055A00093F83940012C01D0122C37D101B10AB93E
:1055B000012030BD00BF93F83800012801D102203E
:1055C000F7E7012083F8380000BF99629A85DA85F1
:1055D0000020D86393F83900122803D1322083F8D1
:1055E000390002E0222083F839001868C06840F4CE
:1055F00080701D68E8601868406940F001001D680F
:10560000686100BF002083F8380000BF1868C068D8
:1056100040F020001D68E8600020CAE70220C8E7CB
:1056200010B5044640492068884203D13F480078BD
:1056300001F0DEFA3E492068884237D13D480078C3
:10564000FF2810D13C48007801280CD100203A49AD
:105650000870012039490870FF203949C87208468E
:1056600002F028FD22E033480078FF280FD13248AD
:10567000007860B9012030490870304908700F2166
:105680002F48FBF754F8FF202D4908700EE02A48F8
:10569000007801280AD1274800782949274A12783A
:1056A000885426480078401C244908702549206801
:1056B000884237D124480078FF2810D12348007849
:1056C00001280CD1002021490870012020490870D0
:1056D000FF202049C872084602F04CFE22E01A481A
:1056E0000078FF280FD11948007860B901201749C8
:1056F0000870174908700F211648FBF73AF8FF2089
:10570000144908700EE01148007801280AD10E48AB
:10571000007810490E4A127888540D480078401CD1
:105720000B49087010BD000000140140AE000020BD
:1057300000440040AD000020B6000020B70000206B
:10574000FF0E002000480040AC000020B400002004
:10575000B5000020F00E00202DE9F04704460D466C
:10576000164699464FF0000894F83980B8F1010FB9
:1057700002D0B8F1220F65D105B116B90120BDE8FC
:10578000F08700BF94F83800012801D10220F6E725
:10579000012084F8380000BF0020E06394F839004D
:1057A000222803D1322084F8390002E0122084F844
:1057B0003900A684E68428E0E08C401EE084A068DE
:1057C000B0F5805F14D14B4600228021204602F0C4
:1057D00043FB08B10320D2E72F463888C0F3080006
:1057E00021684860206908B9AD1C0EE06D1C0CE012
:1057F0004B4600228021204602F02EFB08B10320F8
:10580000BDE715F8010B21684860E08C0028D3DC67
:105810004B4600224021204602F01EFB08B1032027
:10582000ADE794F83900322803D1222084F83900FA
:1058300002E0012084F8390000BF002084F838001D
:1058400000BF9CE702209AE7704700BFFEE7000018
:1058500000B587B000BF002001901048006840F0FC
:1058600020000E4908600846006800F02000019002
:1058700000BF00BF0320029001200390049002208B
:10588000059002A90648FEF701FA012005490860C3
:105890000549C1F8840207B000BD0000303802405D
:1058A00000140240808242420080424210B586B01D
:1058B000044600BF002000902B48006840F04000E4
:1058C000294908600846006800F04000009000BFC9
:1058D00000BF00BF0020009023481038006840F04F
:1058E00080002149103908600846006800F08000F7
:1058F000009000BF00BF40200190022002900120D4
:105900000390032004900920059001A91748FEF791
:10591000BDF91748B0FBF4F016490860164817495E
:105920000860592048600021144881601048B0FB8D
:10593000F4F0401E1149C860002110480161FFF7D2
:1059400077FC60200E49086064204860022088606F
:1059500000220A48FFF7E8FB00210848FFF7DEFCB9
:10596000FCF79CFD06B010BD40380240001C024010
:1059700040420F0098000020001800405C0A002000
:10598000980A002070B5054604F0E0F8012403F001
:105990006FF802F0BFFF4FF49670FDF754F9002046
:1059A00002F0F4FF64A20121204603F025F900F083
:1059B000D1F9641C65A20121204603F01DF901F014
:1059C000DBF8641C66A20121204603F015F94FF4B0
:1059D000E13002F0EDFB4FF4E13002F0ABFD641C6E
:1059E00064A20121204603F007F9FCF719FA01240B
:1059F000002002F0CBFF64A20121204603F0FCF856
:105A0000FDF734F8641C65A20121204603F0F4F888
:105A1000FDF778F8641C66A20121204603F0ECF83B
:105A2000FFF716FF641C67A20121204603F0E4F88B
:105A30000124002002F0AAFF00F04CF966A2012127
:105A4000204603F0D9F8641C68A20121204603F027
:105A5000D3F8FCF739FD641C69A20121204603F04C
:105A6000CBF8641C00F002FA6AA20121204603F080
:105A7000C3F8641C0124002002F088FF00F014FA2F
:105A800069A20121204603F0B7F8641C00F0AEFFC4
:105A90006AA20121204603F0AFF8641C4FF4E13004
:105AA00002F00AFC6AA20121204603F0A5F8641C5A
:105AB00000F0C4F96BA20121204603F09DF8641C9C
:105AC0000124002002F062FF01F060F96AA20121C6
:105AD000204603F091F8641C01F01AF86BA2012132
